:020000040800F2
:10000000404500207D020008071B00080D1900086C
:10001000051B0008AD0300080D22000800000000C9
:10002000000000000000000000000000C101000806
:10003000E103000800000000150200085D1B000835
:10004000970200089702000897020008970200082C
:10005000970200089702000897020008970200081C
:10006000970200089702000897020008970200080C
:1000700097020008970200089702000897020008FC
:1000800097020008970200089702000897020008EC
:10009000B1030008BD03000897020008970200089A
:1000A00097020008970200089702000897020008CC
:1000B00097020008970200089702000897020008BC
:1000C00097020008970200089702000897020008AC
:1000D00097020008F521000897020008970200081F
:1000E000970200089702000897020008970200088C
:1000F00097020008651C0008970200089702000894
:10010000970200089702000897020008970200086B
:10011000970200089702000897020008970200085B
:10012000970200089702000897020008970200084B
:10013000970200089702000897020008970200083B
:10014000C9030008D50300089702000897020008B9
:10015000970200089702000897020008970200081B
:10016000970200089702000897020008970200080B
:10017000970200089702000897020008000000009C
:1001800097020008970200089702000897020008EB
:1001900097020008970200089702000897020008DB
:1001A000000000000000000097020008DFF80CD0FB
:1001B00000F0EAF800480047C1230008404500204D
:1001C0002B4B19680868B0E8F04F80F30988BFF33B
:1001D0006F8F4FF0000080F311887047000000001F
:1001E00006480068006880F3088862B661B6BFF30D
:1001F0004F8FBFF36F8F00DF00BF00BF08ED00E03F
:10020000DFF80C00016841F470010160704700BF25
:1002100088ED00E0EFF30980BFF36F8F144B1A688D
:100220001EF0100F08BF20ED108A20E9F04F10607B
:1002300008B44FF0500080F31188BFF34F8FBFF325
:100240006F8F02F0BBFD4FF0000080F3118808BCF7
:1002500019680868B0E8F04F1EF0100F08BFB0EC46
:10026000108A80F30988BFF36F8F704700BF00BF0B
:100270003C000020EFF305807047000006488047EF
:1002800006480047FEE7FEE7FEE7FEE7FEE7FEE77B
:10029000FEE7FEE7FEE7FEE7111C0008AD010008DF
:1002A0002DE9F05F0546002092469B4688460646AB
:1002B000814640241BE0284641464746224600F03E
:1002C00053F853465A46C01A914110D31146184666
:1002D000224600F03AF82D1A67EB01084F462246F5
:1002E0000120002100F031F817EB00094E41201EDB
:1002F000A4F10104DFDC484631462A464346BDE806
:10030000F09F40EA01039B0703D009E008C9121FD0
:1003100008C0042AFAD203E011F8013B00F8013BBF
:10032000521EF9D27047D2B201E000F8012B491EEB
:10033000FBD270470022F6E710B513460A46044682
:100340001946FFF7F0FF204610BD202A04DB203AB3
:1003500000FA02F1002070479140C2F1200320FA18
:1003600003F3194390407047202A04DB203A21FA16
:1003700002F00021704721FA02F3D040C2F12002BE
:100380009140084319467047064C074D06E0E06867
:1003900040F0010394E8070098471034AC42F6D3CC
:1003A000FFF708FF94310008B4310008FEE70000B1
:1003B000014800F093B9000084030020014800F0D8
:1003C0008DB9000084030020014800F087B90000C7
:1003D000AC030020014800F081B90000AC0300200C
:1003E0007047704790F82020012A09D090F820200B
:1003F000022A05D0416A41F4802141620120704700
:10040000006842690A43426100207047F0B590F8E5
:100410002040012C07D090F82040022C03D0416AE4
:1004200041F4802153E00468A5686D0105D4A568F6
:100430002D0102D4A568ED0046D5A4680125C4F3BA
:100440000164A5401D608D684FF4C0739DB1CE68F6
:1004500035434E6845EAC605066803EB0417F551B7
:100460004FF4C275076805EB04150E697E51097DCE
:10047000012905D009E00E88CD6845EA4655EBE72D
:1004800001684E5946F480764E511179D2F80550E4
:100490004FF4C67641EA0521056806EB0416A9511A
:1004A0001178D2F801204FF4C47541EA02210268A4
:1004B00005EB04155151006803EB0411425842F05A
:1004C000010242500020F0BD416A41F40011416236
:1004D0000120F0BD10B590F82020012A09D090F835
:1004E0002020022A05D0416A41F480214162012086
:1004F00010BD3A48D0F8002242F00102C0F80022B4
:10050000D0F8002222F47C52C0F80022D0F8002259
:100510004B6A42EA0322C0F800220B7D01229A4076
:10052000D0F81C329343C0F81C32CB69B3B9D0F871
:100530000C329343C0F80C328C894B6864F31F4330
:100540004C6900EBC404C4F840320C890B6864F3B6
:100550001F434C6900EBC404C4F84432CB69012B3F
:1005600016D1D0F80C321343C0F80C320C884B680B
:1005700064F31F434C6900EBC404C4F840320C8997
:10058000CB6864F31F434C6900EBC404C4F84432E5
:100590008B69002BD0F804320ED01343C0F804321C
:1005A0000B69002BD0F8143208D01343C0F8143272
:1005B000096A012904D008E09343EFE79343F5E784
:1005C000D0F81C121143C0F81C12D0F8001221F010
:1005D0000101C0F80012002010BD000000640040BE
:1005E000704730B590F82040012C07D090F820409B
:1005F000022C03D0416A41F4802109E011B10129A4
:1006000009D00CE00468E46807E0416A41F4001195
:100610004162012030BD04682469A407F5D04FF47D
:10062000D874056804EB01142D5915F00405956084
:1006300005682D5942D0ED08556005682C59C4F362
:100640004004D4604FF4DA74056804EB01142D59AA
:1006500005F00F05156105682D59C5F3072595614E
:1006600005682C59240C54614FF4DC72046802EBC9
:100670000112A4581C700468A458240A5C70046811
:10068000A458240C9C700468A258120EDA704FF41F
:10069000DE72046802EB0112A4581C710468A458AD
:1006A000240A5C710468A458240C9C710468A25844
:1006B000120EDA7129B1012909D00DE06D0D156016
:1006C000BBE70068C16841F02001C16004E0006838
:1006D000016941F020010161002030BD2DE9F05F8A
:1006E0000546006800244669D0F804908768D0F871
:1006F0000CB0D0F810A0D0F81880F10748D0F90756
:1007000014D001218160B80703D5284600F061FAB2
:100710000CE0780702D54FF4006407E0380702D5F3
:100720004FF4805402E0284600F052FAF80516D53E
:1007300029684FF480708860B80503D5284600F01A
:100740004AFA0CE0780502D544F4005407E0380575
:1007500002D544F4804402E0284600F03BFAF80356
:1007600016D529684FF480308860B80303D5284631
:1007700000F033FA0CE0780302D544F4004407E0BB
:10078000380302D544F4803402E0284600F024FA0D
:10079000300707D55FEACB6004D52968102044F400
:1007A0000074C86070074FF0080707D55FEA0B7048
:1007B00004D52868C760284600F0AAF9B00706D516
:1007C0002868C068800702D0284600F0A3F97006A8
:1007D00007D55FEACA6004D52968102044F4806414
:1007E0000861B00607D55FEA0A7004D5286807617A
:1007F000284600F0BDF9F00606D528680069800794
:1008000002D0284600F0B5F9B00308D55FEAC96008
:1008100005D5296810204860284600F0ABF9F003A0
:1008200007D55FEA097004D528684760284600F0BC
:10083000D5F9300446D55FEA497040D5F00504D5B6
:100840005FEAC87001D044F00104B00504D55FEA46
:10085000887001D544F00204700504D55FEA487041
:1008600001D544F00404300529D518F0700F26D0C6
:1008700008F07000402815D006DC102809D0202888
:100880000AD0302816D10AE050280ED0602811D1A5
:100890000EE044F008040DE044F010040AE044F0D7
:1008A000200407E044F0400404E044F0800401E048
:1008B00044F480742868816921F07001816129689D
:1008C00004204860002C05D0686A204368622846EE
:1008D000FFF786FEBDE8F09F70B5040003D094F8E2
:1008E000200010B104E0012070BD204600F082F825
:1008F0002068016821F00201016000F073FA0546EA
:10090000052604E000F06EFA401B0A2811D8206882
:1009100040688007F6D42068016841F00101016059
:1009200000F060FA05460BE000F05CFA401B0A2874
:1009300006D9606A40F40030606284F82060D2E733
:1009400020684068C007EFD0207E01282068016839
:100950003DD021F080010160607E0128206801689F
:1009600038D021F040010160A07E01282068016894
:1009700033D021F020010160E07E01282068016869
:100980002ED041F010010160207F0128206801680D
:1009900029D021F008010160607F012820680168EA
:1009A00024D021F004010160D4E902010843D4E914
:1009B0000412114308436168491E08432168C86155
:1009C00000206062012084F82000002070BD41F00A
:1009D0008001C0E741F04001C5E741F02001CAE7CE
:1009E00021F01001CFE741F00801D4E741F0040104
:1009F000D9E70000F0B587B0044614216846FFF738
:100A000099FC3E4B3E48DFF8F0E01968D4F800C08E
:100A10003B4A03250226092710300024491CF445CF
:100A20002AD11960012907D1016841F000710160E4
:100A3000006800F000700590106840F00800106039
:100A40001068CDE9005600F00800CDE90470694651
:100A50002C48CDE9024500F0D5F8002205211420EC
:100A600000F04AFA142000F03BFA0022052115207C
:100A700000F042FA15203BE0DFF88CE0F44539D174
:100A8000D0F800C04CF0806CC0F800C0D0F800C0B6
:100A900001290CF0806CCDF814C0196007D10168F1
:100AA00041F000710160006800F00070059010686E
:100AB00040F002001060106802AB00F002000590E8
:100AC0004FF44050CDE9000683E8B00069460F4876
:100AD00000F098F800220521402000F00DFA402097
:100AE00000F0FEF900220521412000F005FA412026
:100AF00000F0F6F907B0F0BD006400400C000020E3
:100B000030380240000C02400068004000040240FF
:100B10007047000000B587B0144B6A460021FFF70C
:100B200060FD08B1FFF75DFC0098A0F5007001388A
:100B300005D0012803D0022801D0032810D1009845
:100B4000401EC0B2C0EBC0010848E03800EB810095
:100B500081694A1C32290549826103D801F02BFCC6
:100B600007B000BD01F002FCFAE700007C010020A4
:100B7000704770477047000070B5044690F8200039
:100B8000012804D0606A40F40020606218E002206E
:100B900084F820002068016821F00101016000F064
:100BA00021F905460EE000BF00F01CF9401B0A28A1
:100BB00008D9606A40F400306062052084F82000A3
:100BC000012070BD20684068C007EDD1606270BD33
:100BD000704770477047704770477047704790F88C
:100BE0003510022903D0802141650120704705217D
:100BF00080F835100068016821F0010101600020D3
:100C0000704700002DE9F84FDFF890B100224FF057
:100C100001084FF0030A4FF00F090BF1040E00BF5B
:100C20000B6808FA02F42340A3426ED14D68022DEE
:100C300001D0122D0ED1D50800EB850CDCF8205028
:100C40005607F70E09FA07F6B5430E69BE402E4364
:100C5000CCF82060066855000F790AFA05FC07F009
:100C6000030726EA0C06AF40374307604E68012EA3
:100C700005D0022E03D0112E01D0122E0ED187687E
:100C8000CE6827EA0C07AE403E4386604668A6431E
:100C90000C79C4F30014944034434460C4688E68F3
:100CA00024EA0C04AE402643C6604C68E4006FD5CD
:100CB0003B4C256845F480452560246822F00305F7
:100CC00004F480440094374C2E19D6F80848950750
:100CD0002F0F09FA07F5AC43334DA84201D1002587
:100CE0002EE0324DA84201D1012529E0304DA84225
:100CF00001D1022524E02F4DA84201D103251FE098
:100D00002D4DA84202D104251AE041E02B4DA84206
:100D100001D1052514E02A4DA84201D106250FE096
:100D2000284DA84201D107250AE0274DA84201D14C
:100D3000082505E0254DA84201D1092500E00A2536
:100D4000BD402543C6F80858DBF800405D464E68B4
:100D50009C43F60300D51C432C60DEF8004075462A
:100D60004E689C43B60300D51C432C600B4D0835E0
:100D70002C684E689C43F60200D51C432C60074D3E
:100D80000C352C684E689C43B60200D51C432C6081
:100D9000521C102AFFF444AFBDE8F88F003C01401C
:100DA000443802400030014000000240000402408C
:100DB00000080240000C02400010024000140240F3
:100DC00000180240001C02400020024000240240A3
:100DD00042694A40426170470AB181617047090423
:100DE000FBE7000001488068704700002C000020ED
:100DF0000248816802781144816070472C0000200D
:100E00000B4810B5016841F400710160016841F4BC
:100E100080610160016841F480710160032000F08D
:100E20008BF8002000F006F800F03EF8002010BD1E
:100E3000003C024010B5014688B000222D2000F091
:100E40005BF82D2000F04CF813480024016841F4B1
:100E500080710160006805A900F480700690684602
:100E600000F04CF900F06AF90C494000B0FBF1F1D8
:100E70000C480B4A491E026040F2E732C0E90324E5
:100E8000C0E9011400F03CFB10B1012008B010BD16
:100E9000044800F051FBF9E74038024040420F009F
:100EA00000200040140400200C4882B0016841F486
:100EB00080410160006800F4804000900748001FF6
:100EC000016841F0805101600068002200F080500C
:100ED00000900F21901E02B000F00EB8443802407E
:100EE00000F01F02012191404009800000F1E02044
:100EF000C0F8001170470000F0B40E4B1B680C46A0
:100F0000C3F30223C3F10705042D00D90425191DDD
:100F1000072901D2002300E0DB1E012606FA05F1B5
:100F2000491E214099409E40761E16403143F0BC38
:100F300000F0EABD0CED00E0064900F00702086889
:100F40004FF6FF03184040EA0220034A10430860AE
:100F5000704700000CED00E00000FA052DE9F843B1
:100F60001748016841F0805101600068154F00F09A
:100F70008050012600903E64FFF734FF05464FF491
:100F80007A78114C05E000BFFFF72CFF401B40456D
:100F90000DD86068C003F7D57E64FFF723FF0546D0
:100FA000464607E0FFF71EFF401BB04202D9032070
:100FB000BDE8F88360688003F4D50020F8E70000FE
:100FC0004038024000000E42007000402DE9F0471A
:100FD0000E46050065D0DFF81481D8F80000F7B29E
:100FE00000F00F00B04207D288F80070D8F8000077
:100FF00000F00F00B04254D128683D4C810712D553
:10100000400703D5206840F4E050206028780007AE
:1010100003D5206840F4604020602068A96820F073
:10102000F000084320602878C0072DD03049686858
:101030000839012812D0022813D0032811D00968DA
:10104000890700292DDA216821F00301014321607D
:10105000FFF7C8FE814641F2883A0EE0096889032D
:10106000EFE709688901ECE7FFF7BCFEA0EB090197
:10107000514502D90320BDE8F0872068696800F077
:101080000C00B0EB810FEFD1D8F80010404601F012
:101090000F01B14207D90770006800F00F00B0429D
:1010A00001D00120E7E72878400705D52068E968E6
:1010B00020F4E050084320602878000706D5206817
:1010C000296920F4604040EAC100206000F056F831
:1010D0002168084AC1F30311515CC8400649086001
:1010E0000020FFF7A7FE0020C5E70000003C0240FB
:1010F0000838024040310008380000200F2202600A
:101100000C4A136803F003034360136803F0F00311
:101110008360136803F4E053C36012684FF4E05334
:1011200003EAD20202610448006800F00F00086080
:101130007047000008380240003C0240044805495E
:1011400000680968044AC1F38221515CC8407047B5
:101150003800002008380240503100080448054992
:1011600000680968044AC1F34231515CC8407047C5
:10117000380000200838024050310008154810B5EA
:10118000006810F00C02144813D01449042A0FD040
:10119000082A0ED10F4C241F2268236802F03F0258
:1011A0005B0207D52068C0F38810A0FB010106E0B0
:1011B000084610BD2168C1F38811A1FB000100237E
:1011C000FFF76EF82168C1F30141491C4900B0FBEB
:1011D000F1F010BD083802400024F400001BB700F5
:1011E0002DE9F84F050076D02878DFF8F8B2BE4C2C
:1011F000C00749D0DBF800105846C1F3810101292E
:1012000008D00068C0F3810002280AD1201D0068C0
:10121000400206D52068800336D568680028E2D0F1
:1012200032E06868B0F5803F10D0B0F5A02F20689C
:1012300010D020F480302060206820F480202060CE
:101240006868A0B1FFF7CEFD06460CE0206840F4C8
:101250008030F4E740F480202060F7E7FFF7C2FD1C
:10126000801B642873D820688003F7D50CE0FFF753
:10127000B9FD064605E000BFFFF7B4FD801B6428FA
:10128000F0D820688003F7D42878DFF860828007E0
:101290004FF000093ED5DBF80010584611F00C0F56
:1012A00009D00068C0F3810002280BD18D48001FCF
:1012B0000068400206D42068800715D5E868012838
:1012C00009D111E0E868B8B10120C8F80000FFF7C3
:1012D00089FD064605E002E1FFF784FD801B022838
:1012E000C0D820688007F7D52068296920F0F80069
:1012F00040EAC10020600DE0C8F80090FFF772FDE1
:10130000064604E0FFF76EFD801B02281FD8206808
:101310008007F7D42878000722D5724E744869698F
:101320006C3671B101210160FFF75CFD074604E0F6
:10133000FFF758FDC01B022809D830688007F7D591
:101340000EE0C0F80090FFF74DFD074605E083E092
:10135000FFF748FDC01B02287ED830688007F7D40D
:101360002878400768D5DFF87CA100270AF1380A01
:10137000DAF80000C0000BD4DAF8001041F0805118
:10138000CAF80010DAF80000012700F08050009041
:10139000584E3068C00510D4306840F4807030601A
:1013A000FFF720FD009005E0FFF71CFD0099401AB3
:1013B000022851D83068C005F6D54A4EA86868366C
:1013C00001280FD00528306810D020F001003060CF
:1013D000306820F004003060A868B8B1FFF702FD63
:1013E00000900FE0306840F00100F4E740F00400A6
:1013F0003060F7E7FFF7F6FC0099411A41F28830B8
:10140000814264D830688007F4D50EE0FFF7EAFC2B
:10141000009007E0FFF7E6FC0099411A41F288309E
:10142000814254D830688007F4D42FB1DAF8001024
:1014300021F08051CAF80010A869C0B3DBF8001091
:10144000C1F3810102294AD00228484607D0C8F8D2
:101450006000FFF7C7FC00E039E005463AE0474688
:10146000C8F86000FFF7BEFC064604E0FFF7BAFCD0
:10147000801B02282BD820688001F7D4D5E907010A
:101480000843A96A1C4A490802EB01416A6A41EA19
:101490008211084395F82C1040EA01611148001FA1
:1014A000016001203866FFF79DFC054605E014E069
:1014B000FFF798FC401B022809D820688001F7D567
:1014C0000BE000BFFFF78EFC401B022802D903206F
:1014D000BDE8F88F20688001F4D40020F8E70120EF
:1014E000F6E700000838024000380240000047429A
:1014F000800E4742007000400000FFFF70477047B9
:1015000010B5040003D094F8390010B107E00120B1
:1015100010BD002084F83800204600F00CF80220AE
:1015200084F83900211D206800F0A2FB012084F816
:101530003900002010BD70470168CA6842F00102FE
:10154000CA600068016841F0010101600020704735
:10155000704770B50446006801694FF00005C94343
:10156000890715D4C168C943890711D4E91E0161EF
:1015700001202076206880698007204602D0FFF78E
:10158000E7FF04E000F098F8204600F096F8257692
:1015900020680169C943490717D4C168C94349078D
:1015A00013D46FF004010161022020762068806965
:1015B00010F4407F204602D0FFF7CAFF04E000F09D
:1015C0007BF8204600F079F8257620680169C94348
:1015D000090716D4C168C943090712D46FF008017E
:1015E0000161042020762068C0698007204602D06F
:1015F000FFF7AEFF04E000F05FF8204600F05DF872
:10160000257620680169C943C90617D4C168C94352
:10161000C90613D46FF010010161082020762068FC
:10162000C06910F4407F204602D0FFF791FF04E02C
:1016300000F042F8204600F040F825762068016965
:10164000C943C90708D1C168C943C90704D1891E64
:101650000161204600F032F820680169C94309069B
:1016600009D4C168C943090605D46FF0800101613E
:101670002046FFF743FF20680169C943490609D4A2
:10168000C168C943490605D46FF040010161204695
:1016900000F01EF820680169C94389060BD4C168AF
:1016A000C943890607D46FF0200101612046BDE8D7
:1016B0007040FFF724BF70BD704770470068034952
:1016C000884201D1FFF794BB704700000020004022
:1016D0007047704770B5026804461068D168536956
:1016E00010F00F0F50D003F0010501F49076354350
:1016F0005DD0C20705D0CA0503D5E26B42F00102F6
:10170000E263420705D5DA0703D0E26B42F002023A
:10171000E263820705D5DA0703D0E26B42F00402E8
:10172000E263020705D5DA0703D0E26B42F0080254
:10173000E263E26B002A33D0800604D5880602D526
:10174000204600F089FB20684069E16BC0F38010FF
:10175000090700D428B3204600F070FB20684169D7
:1017600049061AD5416921F040014161606BA0B181
:101770001B490165606BFFF732FA002810D0606BDF
:10178000016DBDE870400847830610D58B060ED565
:101790002046BDE8704000F05FBB2046FFF799FF90
:1017A00070BD2046FFF795FF0020E06370BD030683
:1017B00006D50B0604D52046BDE8704000F0E8BC15
:1017C0004006F3D54806F1D5D168204621F0400106
:1017D000D160202184F8391000F097F870BD000026
:1017E0002D1E000870B5040004D094F839000025BF
:1017F00010B106E0012070BD84F83850204600F09A
:1018000023F8242084F839002068C16821F40051AD
:10181000C160204600F066FB2068016921F4904118
:1018200001612068416921F02A0141612068C16895
:1018300041F40051C160E563202084F8390084F848
:101840003A00002070BD000010B586B00446142197
:101850006846FEF76FFD17492068884228D1164870
:10186000016841F010010160006800F0100005906F
:1018700011481438016841F00201016000686946AE
:1018800000F002000590C02000900220019001208D
:10189000029003200390072004900848FFF7B2F954
:1018A000002205212520FFF727FB2520FFF718FB45
:1018B00006B010BD00100140443802400004024050
:1018C00090F83A30202B1DD1D1B1CAB190F8383000
:1018D000012B17D081628285C2850021C16322223B
:1018E00080F83A2080F8381001684A6942F0010215
:1018F0004A610068C16841F49071C160002070477E
:10190000012070470220704770477047FEE70000D3
:101910000F4810B50D4901600521416000214FF4C9
:1019200040328160C0E903121201426101764176C2
:101930008176C17601774177FEF7CEFF002803D08C
:10194000BDE81040FEF74DBD10BD00000064004032
:10195000840300200F4810B50D4901600921416042
:1019600000214FF440328160C0E903124FF480023D
:101970004261017641768176C17601774177FEF743
:10198000ABFF002803D0BDE81040FEF72ABD10BD14
:1019900000680040AC03002010B59AB014221C4926
:1019A0006846FEF7AEFC0021684600F039FD194C90
:1019B000174914222060143105A8FEF7A2FC00216B
:1019C00005A800F02DFD12496060142228310AA8F4
:1019D000FEF797FC00210AA800F022FD0C49A06048
:1019E00014223C310FA8FEF78CFC00210FA800F058
:1019F00017FD0749E0601422503114A8FEF781FC5E
:101A0000002114A800F00CFD20611AB010BD0000E8
:101A1000DC300008100000202DE9F04186B01421D0
:101A20006846FEF787FC23480024016841F0020164
:101A30000160016801F002010591016841F00801AF
:101A40000160016801F008010591016841F0800121
:101A50000160016801F080010591016841F04001D9
:101A600001600068144F00F04000059001223C2105
:101A70003846FFF7B1F9DFF844804FF4FF760122D2
:101A800031464046FFF7A8F93C2000900125CDE9FA
:101A90000154694638460394FFF7B4F80096CDE93F
:101AA0000154694640460394FFF7ACF806B0BDE820
:101AB000F081000030380240001C02400018024053
:101AC0000E4810B50C4901600D4941604FF480513A
:101AD000816000214FF48062C0E903120422C0E952
:101AE0000521C161FFF77EFE002803D0BDE810404C
:101AF000FEF777BC10BD000000100140D4030020A9
:101B0000A0860100FEE770470907090E002806DAE3
:101B100000F00F0000F1E02080F8141D704700F184
:101B2000E02080F80014704730B4034C4466034C46
:101B3000846630BC00F06EBD152600082326000820
:101B4000054C4FF4FA7502212046FFF741F928466B
:101B500000F05AFCF7E700000018024010B55020D2
:101B600080F31188BFF34F8FBFF36F8F01F0F0F94F
:101B700018B104494FF080500860002080F31188AC
:101B800010BD000004ED00E030B593B03021684690
:101B9000FEF7D0FB14210CA8FEF7CCFB1A48002559
:101BA000016841F080510160006800F080501190A0
:101BB0001648016841F4404101600068022400F4C5
:101BC0004040119001200090000401908001CDE977
:101BD000064006200890B420CDE9090404200B90AB
:101BE0006846FFF7FDFAFFF7B9F90CA90F2081E865
:101BF00031004FF4A0500F90E002109005210CA886
:101C0000FFF7E4F913B030BD4038024000700040E7
:101C10001048016841F4700101600F48016841F00B
:101C2000010101600C4A00210832116002680B4B6F
:101C30001A400260031D0A4A1A60026822F48022D8
:101C4000026005480C30016002495806803908607E
:101C50007047000088ED00E000380240FFFFF6FE0C
:101C6000103000240148FFF774BC00001404002069
:101C7000F0B50268234B244D244E254F254C4FF0E0
:101C8000804C984209D0604507D0A84205D0B042A8
:101C900003D0B84201D0A04204D122F0700E4A68AD
:101CA00042EA0E0298421BD0604519D0A84217D0D4
:101CB000B04215D0B84213D0A04211D0164DA84260
:101CC0000ED0164DA8420BD0154DA84208D0154D88
:101CD000A84205D0144DA84202D0144DA84203D109
:101CE00022F44075CA682A4302608A68C2620A68A0
:101CF0008262984201D0A04201D1096901630121A9
:101D00004161F0BD000001400004004000080040B7
:101D1000000C00400004014000400140004401402C
:101D20000048014000180040001C00400020004016
:101D3000012000F069FBFBE7012000F065FBFBE7F9
:101D40002DED028B82B09FED318ADFED318A314D6E
:101D500000244FF4804600BF04EBC40000EB4000B9
:101D600005EB8000B0EE481AF0EE680AB7EE080AFC
:101D7000324633460321FFF7D7FE641CE4B2042C3D
:101D8000EAD3254E254F244800F066FA5FF00004A0
:101D900036F9140000EE100AC4EBC40037F9200035
:101DA000F8EEC00A00EE100A04EBC40000EB40009D
:101DB000B8EEC00A05EB800000F04AFB641C042C5E
:101DC000E6DB95ED600ABDEEC00A10EE100A00B227
:101DD000009095ED450ABDEEC00A10EE100A95ED93
:101DE0002A0A03B2BDEEC00A10EE100A95ED0F0AE2
:101DF00002B2BDEEC00A10EE100A01B2084800F0AF
:101E00007BFE322000F000FBBDE700000000000078
:101E1000CDCCCC3DD4010020240000209C0000202B
:101E200084030020012000F0EFFAFBE710B5806B7F
:101E30000021C185C184FFF74CFC10BD0168CA6850
:101E400022F49072CA6001684A6922F001024A6174
:101E5000202180F83A10704710B590F83A102229E6
:101E600001D0022010BD8168B1F5805F11D00169F9
:101E7000002901681FD0496801F07F03816A4A1C6C
:101E800082620B70C18D491E0904090CC18518D0EE
:101E900026E00269816A002A0268526805D0D2B23F
:101EA0000A80816A491C8162ECE7C2F308020A8059
:101EB000816A891CF7E74A68816A4B1C83620A7051
:101EC000E0E70168CA6822F49072CA6001684A6952
:101ED00022F001024A61202180F83A10FFF714FD38
:101EE000002010BD2DE9F04104460068016921F48D
:101EF0004052E168114301612168C86849F20C62EF
:101F000090432369A268E5691A4363692B431A4326
:101F10000243CA602168486920F44072A0691043F6
:101F20004861E1696425B1F5004F9748974A2168F7
:101F30004FF032083FD0914201D081427CD1FFF76F
:101F40000DF900EBC00101EB001061688900B0FBE6
:101F5000F1F6FFF703F900EBC00101EB0010616837
:101F60008900B0FBF1F0B0FBF5F06FF018014843C9
:101F700006EB800108EB0110B0FBF5F000F0F00675
:101F8000FFF7ECF800EBC00101EB0010616889007D
:101F9000B0FBF1F0B0FBF5F006EB0016FFF7DEF852
:101FA00000EBC00101EB001061688900B0FBF1F7A4
:101FB000FFF7D4F8D2E0914201D081423DD1FFF742
:101FC000CDF800EBC00101EB001061684900B0FBE7
:101FD000F1F0B0FBF5F00601FFF7C0F800EBC0012F
:101FE00001EB001061684900B0FBF1F7FFF7B6F8AC
:101FF00000EBC00101EB001061684900B0FBF1F09B
:10200000B0FBF5F06FF01801484307EB800108EBD7
:10201000C100B0FBF5F000F0F80006EB4006FFF75A
:102020009DF800EBC00101EB001061684900B0FBB6
:10203000F1F7FFF793F83CE055E0FFF77FF800EB8E
:10204000C00101EB001061684900B0FBF1F0B0FB8A
:10205000F5F00601FFF772F800EBC00101EB00108C
:1020600061684900B0FBF1F7FFF768F800EBC001C9
:1020700001EB001061684900B0FBF1F0B0FBF5F036
:102080006FF01801484307EB800108EBC100B0FB7B
:10209000F5F000F0F80006EB4006FFF74FF800EB14
:1020A000C00101EB001061684900B0FBF1F7FFF7D8
:1020B00045F800EBC00101EB001061684900B0FB7E
:1020C000F1F0B0FBF5F06FF01801484307EB800129
:1020D00008EBC100B0FBF5F000F0070021683044C8
:1020E0008860BDE8F081FFF729F800EBC00101EB43
:1020F000001061688900B0FBF1F6FFF71FF800EBF4
:10210000C00101EB001061688900B0FBF1F0B0FB89
:10211000F5F06FF01801484306EB800108EB011061
:10212000B0FBF5F000F0F006FFF708F800EBC00197
:1021300001EB001061688900B0FBF1F0B0FBF5F035
:1021400006EB0016FEF7FAFF00EBC00101EB0010F2
:1021500061688900B0FBF1F7FEF7F0FF00EBC0010A
:1021600001EB001061688900B0FBF1F0B0FBF5F005
:102170006FF01801484307EB800108EB0110B0FB3A
:10218000F5F000F00F00A9E7001401400010014035
:1021900090F83910212901D0022070478168B1F5EB
:1021A000805F016A0BD04A1C0262026809785160A4
:1021B000C18C491E0904090CC1840ED017E009889E
:1021C0000268C1F30801516001690029016A02D067
:1021D000491C0162ECE7891CFBE70168CA6822F030
:1021E0008002CA600068C16841F04001C1600020FF
:1021F0007047000010B50448FFF76CFABDE81040C6
:10220000014800F09DBC0000D4030020FEE702E07E
:1022100008C8121F08C1002AFAD170477047002071
:1022200001E001C1121F002AFBD17047D0ED000A66
:10223000F4EEC00AF1EE10FA01DD80ED000AD0EDF7
:10224000000AB1EE400AF4EEC00AF1EE10FA01D233
:1022500080ED000A7047000030B521498B880A885C
:1022600049889C18651A0C449B1A5A1805EB850579
:102270006D0004EB8404591A2DB2640002EB820253
:1022800001EB810152004900058024B20BB2448069
:1022900012B2828041F28831C3808D4200DD01801C
:1022A0008C4200DD41808A4200DD81808B4200DD6E
:1022B000C180B0F900200B498A4200DA0180B0F9F0
:1022C00002208A4200DA4180B0F904208A4200DA12
:1022D0008180B0F906208A4200DAC18030BD00005A
:1022E000BE01002078ECFFFF10B58AB00021044643
:1022F0000120CDE906100391059100910191029111
:10230000049108900E200E4909908C4200D105904E
:1023100069462046FEF7DEF808B1FEF762F820466F
:10232000FEF72AFC08B1FEF75CF802212046FEF712
:1023300059F808B1FEF755F80AB0002010BD0000AA
:10234000AC030020074882B0006801684168009132
:10235000C16841F03001C16032220349014802B036
:10236000FFF7AEBAD4030020AC01002030B50389DA
:1023700043810A886FF0040552BA02814C88D31A4F
:1023800064BA04808C88B3F5805F64BA24B294FB8D
:10239000F5F4848089798171016901DD491E03E0CA
:1023A00013F5805F01DA491C016102EB413182893A
:1023B000891A416130BD098849BA0181818170471C
:1023C000FEF71EFDFFF7E0FBFFF726FBFFF778FBAC
:1023D000FFF79EFAFFF7BEFA0648FFF785FF0648AB
:1023E000FFF782FFFFF7AEFFFFF7D6FA00F013F812
:1023F000FEE7000084030020AC030020014600201B
:10240000842900D0C81C704710B500B9012000F025
:1024100073FC002010BD10B500F094FC002010BD2E
:102420003EB504460D46B0F90800FFF7E7FF02A9E4
:10243000CDE90001208A2B4682B2D4E9001000F0D9
:102440005BFD012801D000203EBD02983EBD00008A
:1024500000B530EEC01A80ED080AC0ED050A80ED27
:102460000B1AD0ED141A01469FED692A30EEC00A0E
:10247000F5EEC01AB1EE400AF1EE10FA0ED0B5EE4C
:10248000C01AF1EE10FA02DDF0EE410A01E0F0EEC2
:10249000400AF4EEE10AF1EE10FA12DCD1ED150A71
:1024A000F5EEC00AF1EE10FA0ED0B5EEC01AF1EE5C
:1024B00010FA01DDB0EE410AB4EEE00AF1EE10FAD6
:1024C00002D2B0EE420A00BD886D01F13402032849
:1024D00002D0042838D07AE091ED000A104620EEB0
:1024E000010A81ED0C0A91ED0D0AD1ED010A00EE11
:1024F000810A81ED0D0A91ED0A0AD1ED020A31EE51
:10250000400A20EE200A81ED0E0A91ED180AB8EE7D
:10251000400AFFF78BFE91ED0C0AD1ED0D0A01F197
:102520003C0030EE200AD1ED0E0A30EE200A81ED9B
:102530000F0A91ED170AB8EE400AFFF777FE91ED0A
:102540000F0A81ED100A42E091ED0A0AD1ED001A5E
:10255000104671EE400A60EEA10AC1ED0C0AD1ED01
:10256000010A60EE810AC1ED0D0AF0EE000A00EEEC
:10257000601A91ED090AD1ED020A31EE000A20EE4F
:10258000200A81ED0E0A91ED180AB8EE400AFFF715
:102590004DFE91ED0C0AD1ED0D0A01F1480030EE2F
:1025A000200AD1ED0E0A30EE200A81ED110AD1ED9C
:1025B000130A30EE800A81ED120A91ED170AB8EE87
:1025C000400AFFF733FE91ED120A81ED130A91EDF7
:1025D0000A0A81ED090A91ED0B0A81ED0A0A91EDD3
:1025E000070A81ED060A91ED080A81ED070A91EDCF
:1025F000040A81ED030A91ED050A81ED040A886D54
:10260000032802D091ED120A00BD91ED0F0A00BD22
:102610000000000000F1580C8CE80E0080EC030A6A
:10262000704780EC030A70472DE9F041184C0F46C3
:102630000546E6682068001D00F0A8FA38B9206851
:1026400090F82C1001208840216981432161681C89
:1026500007D137B12168BDE8F0410E48091D00F0EF
:10266000CDBA20683544B5424560216805D2A06BDB
:10267000BDE8F041091D00F0A9BA606B091D00F02A
:10268000A5FAA06A854200D2A562BDE8F0810000EB
:102690003C0000202C0500202DE9F041054600F00B
:1026A000B9FA2E4CA068401CA06020682C4F10B1D5
:1026B000606940B32DE02560A068012829D100267B
:1026C00006EB860007EB800000F072FA761C072EFE
:1026D000F6D323488C3000F06BFA2148A03000F08C
:1026E00067FA1F48B43000F063FA1D48C83000F0A4
:1026F0005FFA1B48DC3000F05BFA19488C306063ED
:102700001430A06305E02068E96AC06A884200D8F6
:102710002560606A401C6062E96A01202269884085
:102720001043206101EB810007EB8000291D00F0C0
:1027300065FA00F08FFA606900280CD02068E96A19
:10274000C06A884207D207494FF080500860BFF343
:102750004F8FBFF36F8FBDE8F08100003C00002079
:102760005004002004ED00E070B5114E114C17E04C
:1027700000F01CFB3068B8B100F04EFC00F04AFAE3
:10278000F068C568281D00F001FAA068401EA0602E
:102790006068401E606000F05DFA284600F00CF8AA
:1027A00060680028E4D170BD00F036FCF8E7000056
:1027B000180500203C00002010B50446006B00F016
:1027C0005DFA2046BDE8104000F058BA10484FF4BA
:1027D0007051420706D0C01D0D4920F00700411A74
:1027E000C1F570510B4A00230144C2E900030839C6
:1027F000103A21F0070111604B600B600B1AC0E921
:10280000001393604FF000405360D06070470000A9
:102810004005002088000020074C4FF08056074DEF
:10282000FFF7A2FF20680128FAD92E60BFF34F8F6F
:10283000BFF36F8FF4E700005004002004ED00E0C8
:102840002DE9F0479A46DDE9098481466FF00303DC
:10285000206B03EB82021044089D20F007067007EE
:1028600007D0502080F31188BFF34F8FBFF36F8FD5
:10287000FEE723180A5C83F834200A5C12B1401C7E
:102880001028F6D3002784F84370072D00D30625BF
:10289000E562C4E91157201D00F095F904F1180014
:1028A00000F091F92461C5F107006462A061E7645A
:1028B00084F8507052464946304600F0BFF8206018
:1028C000B8F1000F01D0C8F80040BDE8F087000063
:1028D00030B5114900E011460A688242FBD34B68CB
:1028E0005C18844203D14068184448600846436835
:1028F0001C18944209D1084C103C2468A24209D00B
:1029000052681A4442600A6812680260814200D02C
:10291000086030BD0460F9E7880000200648416B7C
:10292000096829B1416BC968C96849688162704703
:102930004FF0FF31FAE700003C00002008484068F3
:10294000401C4FF0500080F3118804D0BFF34F8F2C
:10295000BFF36F8FFEE7BFF34F8FBFF36F8FFEE7BD
:10296000900000202DE9F0410546002700F01EFAF6
:10297000314E306808B9FFF729FFF06805424BD1A6
:10298000C5B3083568070ED005F00700C0F1080090
:102990000544680707D0502080F31188BFF34F8F9C
:1029A000BFF36F8FFEE72DB37068854234D822489D
:1029B000103001460C6801E020460C466168A942CF
:1029C00002D221680029F7D131688C4224D00768EF
:1029D0002168016060680837411B10290FD9601910
:1029E000420708D0502080F31188BFF34F8FBFF308
:1029F0006F8FFEE710E041606560FFF769FF616877
:102A00007068401A7060B268904200D2B060F0689E
:102A100001430020C4E9000100F0FEFA780707D066
:102A2000502080F31188BFF34F8FBFF36F8FFEE705
:102A30003846BDE8F08100007800002010B5031F83
:102A40004FF080741C601B1F21F001011960191FD9
:102A5000044B0B6014390A60091F6FF002024438FE
:102A60000A6010BD3D29000870B50188C1F30A0352
:102A70002049A3F580630B8042788478D20842EA2B
:102A80004412C2F30A05A5F580654D808278C478AA
:102A9000920942EA8402047903F5257342EA84220A
:102AA000C2F30A02A2F580628A800479467964083A
:102AB00044EAC614C4F30A04A4F58064CC804679C1
:102AC000B6090E724679C6F301164E72C6884E815B
:102AD00006898E814689CE81067B0E74467B4E74B4
:102AE000807B48824FF4A560834201D805F52575A7
:102AF00070BD0000BE010020F0B40F4C0826049DFC
:102B000026610026A660E6604FF400762660122655
:102B100066600A4C0E0A26706170110AA170E2709C
:102B2000190A21716371290AA171231FE571F0BC93
:102B30001A1D0149FDF76ABC940100200400002021
:102B400038B501680A68D2061BD5CA68D20618D5FE
:102B500004460868486800900A4884420AD194F8FC
:102B60002800094D401BC0B2122802D12846FFF7A9
:102B70007BFFA562BDE83840322203490148FEF7D9
:102B80009FBE38BDD4030020AC010020D0E9013243
:102B900001699A60D0E901235A604A68824201D1F2
:102BA00082684A60002202610868401E086070471F
:102BB00000F108014FF0FF32C0E90112C16001616C
:102BC00000210160704700210161704730B50B683A
:102BD0005A1C02D000F1080202E0026904E0224619
:102BE000546825689D42FAD953684B6099608A60A1
:102BF000516008610168491C016030BD42684A604B
:102C000093688B6093685960916008610168491C02
:102C100001607047502080F31188BFF34F8FBFF3DE
:102C20006F8F0A494868401C486001280CD1084849
:102C3000006810F0FF0F07D0502080F31188BFF319
:102C40004F8FBFF36F8FFEE77047000090000020AA
:102C500004ED00E00849486828B1401E486001D1F1
:102C600080F311887047502080F31188BFF34F8F95
:102C7000BFF36F8FFEE700009000002070B50028C2
:102C800027D0144DA0F108046168E868014207D11B
:102C9000502080F31188BFF34F8FBFF36F8FFEE793
:102CA00022683AB1502080F31188BFF34F8FBFF3F1
:102CB0006F8FFEE78143616000F078F860686968B3
:102CC000084468602046FFF703FEBDE8704000F04E
:102CD000A3B970BD7800002006484FF47A710068EF
:102CE000B0FBF1F14FF0E020491E41610721016185
:102CF000704700003800002010B5020014D00F48C3
:102D0000006B38B1502080F31188BFF34F8FBFF3B1
:102D10006F8FFEE700F04AF800211046FFF784FCB1
:102D200000F07AF9002807D105494FF0805008607B
:102D3000BFF34F8FBFF36F8F10BD00003C0000202A
:102D400004ED00E01CB515480024CDE90040234601
:102D5000802213A1144800F0CFF8012809D0401CAC
:102D60001AD1502080F31188BFF34F8FBFF36F8FBC
:102D7000FEE7502080F31188BFF34F8FBFF36F8FB2
:102D800006484FF0FF312C38816201214161C46057
:102D9000BDE81C4000F040B81CBD000068000020E9
:102DA00049444C4500000000192800080248016B06
:102DB000491C0163704700003C0000201448016B6F
:102DC00011B10121C16170470021C1610169B1FAEE
:102DD00081F1C1F11F0101EB81020E4951F822304E
:102DE0006BB101EB820101F108034A6852684A6045
:102DF0009A4201D152684A60D16801607047502000
:102E000080F31188BFF34F8FBFF36F8FFEE7000091
:102E10003C000020500400201CB532480168324AB2
:102E2000914207D1502080F31188BFF34F8FBFF339
:102E30006F8FFEE700682C49491E884207D1502059
:102E400080F31188BFF34F8FBFF36F8FFEE72749E1
:102E500008780190FF20087008788DF800009DF830
:102E600000009DF8002000F0F000904207D05020B4
:102E700080F31188BFF34F8FBFF36F8FFEE79DF88C
:102E800000001B4A00F0500010700720906005E021
:102E90009DF800305B008DF80030401E9DF800303A
:102EA0001B06F5D4000200F4E06090600198087001
:102EB0000C482030016841F470010160016841F064
:102EC00070410160FFF708FF00205060FDF798F99E
:102ED0000848016841F040410160FDF781F9002098
:102EE0001CBD000000ED00E071C20F4100E400E0F5
:102EF0009000002034EF00E02DE9FF5F8346DDE91C
:102F00000E87994616468A469000FFF72BFD05006E
:102F10001AD05420FFF726FD040012D025630021AB
:102F2000CDE90241CDE900874B463246514658462D
:102F3000FFF786FC2046FFF7AFFB012004B0BDE899
:102F4000F09F2846FFF79AFE4FF0FF30F6E70000AB
:102F50002DE9F0412E4C0027206B40B1A069401CA8
:102F6000A061E06900B101273846BDE8F081E6685C
:102F7000761CE66013D1606B006838B1502080F396
:102F80001188BFF34F8FBFF36F8FFEE7606BA16BAC
:102F90006163A063206A401C2062FFF7BFFCA06A47
:102FA000DFF87080864209D3606B006880B1606B87
:102FB000C068C568686886420DD2A0622068C06A91
:102FC00000EB800158F821000128CAD90127C8E781
:102FD0004FF0FF30F1E7281DFFF7D8FDA86A18B1C0
:102FE00005F11800FFF7D2FDE86A0121226981404E
:102FF0001143216100EB800108EB8100291DFFF7DF
:10300000FDFDE86A2168C96A8842CDD30127CBE774
:103010003C000020500400202DE9F0472C4D0024F6
:103020002746286B38B1FFF7F5FD286B401E286353
:10303000286B40B146E0502080F31188BFF34F8FDA
:10304000BFF36F8FFEE7A968224E0120D1B3A6F12E
:10305000B40980463068E8B1F068C46804F118002B
:10306000FFF794FD201DFFF791FDE06A2A6908FA39
:1030700000F11143296100EB800109EB8100211D62
:10308000FFF7BCFDE06A2968C96A8842E2D3C5F847
:103090001C80DFE70CB1FFF741FCAC6944B1464648
:1030A000FFF756FF00B1EE61641EF9D10020A86160
:1030B000E86938B10849012738070860BFF34F8F26
:1030C000BFF36F8FFFF7C6FD3846BDE8F0870000FD
:1030D0003C0000200405002004ED00E064310008FD
:1030E000411B0008020000000000000080000000FA
:1030F00058310008411D0008FEFF000000000000DC
:10310000000100007C310008391D0008FEFF0000AE
:10311000000000000001000088310008251E0008A2
:10312000FEFF0000000000000001000070310008F8
:10313000311D0008FEFF000000000000000100003B
:103140000000000000000000010203040607080957
:1031500000000000010203045461736B4D6F76653B
:103160000000000053746172745461736B000000BE
:103170005461736B476574496E666F005461736B7D
:10318000486F6C64657200005461736B53686F74B0
:1031900000000000B4310008000000209C00000086
:1031A0000E220008503200089C000020A4440000B9
:1031B0001E220008000000000000000000000000C7
:1031C00000000000000000000000000000000000FF
:1031D00000000000000000000000000000000000EF
:1031E0000100000010000000000000000024F400B6
:1031F00000000000000000000000000000000000CF
:1032000000000000000000000000000000000000BE
:1032100000000000000000000000000000000000AE
:10322000000000000000000000000000000000009E
:10323000000000000000000000000000000000008E
:103240000000000000000000AAAAAAAA00000000D6
:04000005080001AD41
:00000001FF
